:100000000C94DE020C9406030C9406030C94060375
:100010000C9406030C9406030C9406030C9406033C
:100020000C9406030C9406030C9406030C9406032C
:100030000C9406030C9406030C9406030C9406031C
:100040000C946B190C9406030C94AD060C94870663
:100050000C9406030C9406030C9406030C940603FC
:100060000C9406030C94060300000000003E5B4F56
:100070005B3E3E6B4F6B3E1C3E7C3E1C183C7E3C08
:10008000181C577D571C1C5E7F5E1C00183C180016
:10009000FFE7C3E7FF0018241800FFE7DBE7FF30A6
:1000A000483A060E2629792926407F050507407F14
:1000B00005253F5A3CE73C5A7F3E1C1C08081C1C87
:1000C0003E7F14227F22145F5F005F5F06097F017D
:1000D0007F006689956A606060606094A2FFA29468
:1000E00008047E040810207E201008082A1C080836
:1000F0001C2A08081E101010100C1E0C1E0C303884
:100100003E3830060E3E0E06000000000000005F84
:1001100000000007000700147F147F14242A7F2AA0
:100120001223130864623649562050000807030062
:10013000001C2241000041221C002A1C7F1C2A08AE
:10014000083E080800807030000808080808000011
:1001500060600020100804023E5149453E00427F85
:10016000400072494949462141494D331814127FD4
:100170001027454545393C4A494931412111090774
:100180003649494936464949291E000014000000F5
:1001900040340000000814224114141414140041C7
:1001A00022140802015909063E415D594E7C121184
:1001B000127C7F494949363E414141227F414141BC
:1001C0003E7F494949417F090909013E4141517337
:1001D0007F0808087F00417F41002040413F017FA8
:1001E000081422417F404040407F021C027F7F0470
:1001F00008107F3E4141413E7F090909063E4151B9
:10020000215E7F09192946264949493203017F01A8
:10021000033F4040403F1F2040201F3F4038403FA9
:10022000631408146303047804036159494D4300BF
:100230007F4141410204081020004141417F0402F6
:10024000010204404040404000030708002054548D
:1002500078407F284444383844444428384444286B
:100260007F385454541800087E090218A4A49C78BE
:100270007F0804047800447D40002040403D007F1A
:100280001028440000417F40007C047804787C08FA
:100290000404783844444438FC18242418182424CE
:1002A00018FC7C08040408485454542404043F44B3
:1002B000243C4040207C1C2040201C3C4030403CE2
:1002C00044281028444C9090907C4464544C440042
:1002D00008364100000077000000413608000201A6
:1002E0000204023C2623263C1EA1A161123A404092
:1002F000207A38545455592155557941225454780F
:1003000042215554784020545579400C1E527212A7
:100310003955555559395454545939555454580030
:1003200000457C410002457D420001457C407D1234
:1003300011127DF0282528F07C5455450020545496
:100340007C547C0A097F4932494949323A44444441
:100350003A324A4848303A4141217A3A424020787C
:10036000009DA0A07D3D4242423D3D4040403D3C7D
:1003700024FF2424487E4943662B2FFC2F2BFF09A2
:1003800029F620C0887E0903205454794100004496
:100390007D413048484A32384040227A007A0A0A81
:1003A000727D0D19317D2629292F282629292926F4
:1003B00030484D4020380808080808080808382F39
:1003C00010C8ACBA2F102834FA00007B00000814C3
:1003D0002A142222142A14085500550055AA55AA99
:1003E00055AAFF55FF55FF000000FF00101010FF39
:1003F00000141414FF001010FF00FF1010F010F094
:10040000141414FC001414F700FF0000FF00FF1484
:1004100014F404FC141417101F10101F101F1414D0
:10042000141F00101010F0000000001F101010101A
:100430001F10101010F010000000FF10101010100E
:1004400010101010FF10000000FF140000FF00FF4C
:1004500000001F10170000FC04F4141417101714E8
:1004600014F404F40000FF00F7141414141414140A
:10047000F700F7141414171410101F101F1414147D
:10048000F4141010F010F000001F101F0000001FE7
:1004900014000000FC140000F010F01010FF10FF1A
:1004A000141414FF141010101F00000000F010FFAF
:1004B000FFFFFFFFF0F0F0F0F0FFFFFF0000000093
:1004C00000FFFF0F0F0F0F0F3844443844FC4A4A17
:1004D0004A347E02020606027E027E0263554941CC
:1004E000633844443C04407E201E2006027E020203
:1004F00099A5E7A5991C2A492A1C4C7201724C3017
:100500004A4D4D303048784830BC625A463D3E49ED
:100510004949007E0101017E2A2A2A2A2A44445F91
:10052000444440514A444040444A51400000FF0185
:1005300003E080FF000008086B6B08361236243693
:10054000060F090F060000181800000010100030F8
:1005500040FF0101001F01011E00191D1712003C80
:100560003C3C3C000000000000000000250028008A
:100570002B0000000000240027002A0004040404CB
:10058000040404040202020202020303030303033D
:10059000010204081020408001020408102001021A
:1005A00004081020000000080002010000030407F6
:1005B0000000000000000000081F021F11241FBEE1
:1005C000CFEFD8E0DEBFCDBF25E0A4EEB1E001C0A3
:1005D0001D92A938B207E1F711E0A0E0B1E0E6E032
:1005E000F5E402C005900D92A43EB107D9F712E0E0
:1005F000CDEDD2E004C02197FE010E946520CC3DE4
:10060000D107C9F70E94B5190C9476220C9400000A
:10061000CF92DF92EF92FF920F931F93CF93DF93CE
:100620006C017A018B01C0E0D0E0CE15DF0581F0CE
:10063000D8016D918D01D601ED91FC910190F08171
:10064000E02DC6010995892B11F02196EECF7E0190
:10065000C701DF91CF911F910F91FF90EF90DF9035
:10066000CF900895FC01538D448D252F30E0842FC9
:1006700090E0821B930B541710F0CF9608950197CA
:100680000895FC01918D828D981761F0828DDF01B4
:10069000A80FB11D5D968C91928D9F5F9F73928F75
:1006A00090E008958FEF9FEF0895FC01918D828D6A
:1006B000981731F0828DE80FF11D858D90E0089537
:1006C0008FEF9FEF0895FC01918D228D892F90E08F
:1006D000805C9F4F821B91098F739927089580EF4B
:1006E00093E00E94630321E0892B09F420E0822F2C
:1006F0000895FC01848DDF01A80FB11DA35ABF4FDF
:100700002C91848D90E001968F739927848FA68910
:10071000B7892C93A089B1898C91837080648C9364
:10072000938D848D981306C00288F389E02D808113
:100730008F7D80830895EF92FF920F931F93CF9345
:10074000DF93EC0181E0888F9B8D8C8D981305C021
:10075000E889F989808185FD26C0F62E0B8D10E091
:100760000F5F1F4F0F731127E02E8C8DE8120CC006
:100770000FB607FCFACFE889F989808185FFF5CFAC
:10078000CE010E947903F1CF8B8DFE01E80FF11DA0
:10079000E35AFF4FF0829FB7F8940B8FEA89FB89E9
:1007A000808180620AC09FB7F894EE89FF896083D8
:1007B000E889F98980818370806480839FBF81E0AC
:1007C00090E0DF91CF911F910F91FF90EF900895EE
:1007D000CF93DF93EC01888D8823C9F0EA89FB89E8
:1007E000808185FD05C0A889B9898C9186FD0FC0DF
:1007F0000FB607FCF5CF808185FFF2CFA889B989B4
:100800008C9185FFEDCFCE010E947903E7CFDF9178
:10081000CF91089580E090E0892B29F00E946F032A
:1008200081110C94000008950E94522260E083E040
:100830000E94B11883E00E94F71360E083E00E94F9
:10084000B11860E085E00E94B11885E00E94F713BE
:1008500060E085E00E94B11860E082E00E94B1187B
:1008600082E00E94F71360E082E00E94B11860E02D
:1008700084E00E94B11884E00E94F71360E084E0F5
:100880000E94B11880EA8093800081E1809381000A
:1008900080E991E0909387008093860008958FEF20
:1008A0000C94DC0D0F931F93CF93DF938B012FB725
:1008B000F89480917C0590917D05A0917E05B09182
:1008C0007F052FBFEC010E944F048F3F91F02FB79F
:1008D000F89480917C0590917D05A0917E05B09162
:1008E0007F052FBF8C1B9D0B8017910760F380E065
:1008F00001C081E0DF91CF911F910F91089561E0D8
:10090000FC0184810E94B1188091E501882321F0C7
:100910001092E5010C94DB0D0895CF93DF93EC0169
:100920008E81882389F08F8198859C012F5F3F4FAE
:1009300038872F838230924018F40E944F04F3CFFF
:10094000CE010E947F041E82DF91CF9108958F9285
:100950009F92AF92BF92FF920F931F93CF93DF931B
:10096000EC01F62E49015A010E948D048091E501A7
:10097000811109C081E08093E50180918D049091FF
:100980008E040E94280E60E08C810E94B1186CE2F7
:1009900071E0CE010E9452048F2D80640E94DC0D14
:1009A00008E110E0D501C401002E04C0B695A7955A
:1009B000979587950A94D2F70E94DC0D085011098B
:1009C000083F8FEF180771F7FF2029F088E0F81231
:1009D00004C087E803C085E901C08FEF0E94DC0DE9
:1009E00010E00E944F048A8787FF04C01F3F11F068
:1009F0001F5FF7CFDF91CF911F910F91FF90BF90B5
:100A0000AF909F908F900895EF92FF920F931F9356
:100A1000CF93DF93EC017901411551056105710513
:100A200011F482E13CC08B85833039F089E0440FBA
:100A3000551F661F771F8A95D1F79A01AB0168E1B0
:100A4000CE010E94A704882311F084E028C08EEF15
:100A50000E94DC0D87018EEFF81AF80181918F0159
:100A60000E94DC0DE016F106C1F78FEF0E94DC0D4D
:100A70008FEF0E94DC0D0E944F048A878F718530B2
:100A800031F081E18D83CE010E947F0409C068E5C9
:100A900072E0CE010E945204811107C085E18D836E
:100AA000CE010E947F0480E014C020E030E0A90164
:100AB0006DE0CE010E94A704811109C00E944F047D
:100AC000811105C0CE010E947F0481E002C084E153
:100AD000E6CFDF91CF911F910F91FF90EF90089596
:100AE0008091E601882389F140910401509105012C
:100AF00060910601709107012BEE31E080E090E0FB
:100B00000E940405811102C080E008954091E70130
:100B10005091E8016091E9017091EA014115510598
:100B20006105710581F02BEE31E080E090E00E94DC
:100B30000405882349F31092E7011092E80110920E
:100B4000E9011092EA011092E60181E00895AF9266
:100B5000BF92CF92DF92EF92FF921F93CF93DF93DA
:100B60006B017C01142F8091040190910501A091EB
:100B70000601B09107018C159D05AE05BF0509F46E
:100B8000A1C00E947005882309F4A2C080910600CC
:100B90008823A1F08091000090910100A0910200B3
:100BA000B0910300C816D906EA06FB0639F4809115
:100BB000070090910800892B09F455C0C0920000ED
:100BC000D0920100E0920200F092030080910B00AD
:100BD000A7019601833039F099E0220F331F441F9B
:100BE000551F9A95D1F761E180E090E00E94A7043B
:100BF000882321F083E08093050056C02FB7F89436
:100C000080917C0590917D05A0917E05B0917F0536
:100C10002FBFEC010E944F0480930A008F3F91F494
:100C20002FB7F89480917C0590917D05A0917E0569
:100C3000B0917F052FBF8C1B9D0B8D32914050F3DF
:100C40008FE003C08E3F41F08DE08093050080E08F
:100C500090E00E947F0428C01092080010920700C4
:100C600081E080930600CBEED1E08BEEA82E83E0EE
:100C7000B82E0E944F048993AC16BD06D1F780911F
:100C80000700909108009E5F9093080080930700F2
:100C900020910900222319F08115924058F080E03C
:100CA00090E00E948D0406C080E090E00E947F04E6
:100CB00080E00EC0C0920401D0920501E0920601CE
:100CC000F09207014091E601412B4093E60181E05B
:100CD000DF91CF911F91FF90EF90DF90CF90BF9069
:100CE000AF9008956115710579F0FB010190002026
:100CF000E9F73197AF01461B570BDC01ED91FC91F1
:100D00000280F381E02D099480E090E008951F9225
:100D10000F920FB60F9211242F933F934F935F932F
:100D20006F937F938F939F93AF93BF93EF93FF93B3
:100D300080EF93E00E947903FF91EF91BF91AF9113
:100D40009F918F917F916F915F914F913F912F91E3
:100D50000F900FBE0F901F9018951F920F920FB615
:100D60000F9211242F938F939F93EF93FF93E09112
:100D70000004F09101048081E0910604F0910704E1
:100D800082FD12C09081809109048F5F8F73209142
:100D90000A04821751F0E0910904F0E0E051FC4FA1
:100DA000958F8093090401C08081FF91EF919F91FD
:100DB0008F912F910F900FBE0F901F901895CF938A
:100DC000DF93EC018091EB03811105C081E08093FA
:100DD000EB030E941604D7FF05C0D195C195D10938
:100DE00081E001C080E0C13991E0D90714F0C0E989
:100DF000D1E0D0938B00C0938A00882311F061E08A
:100E000001C060E084E0DF91CF910C94B118CF93E2
:100E1000DF93EC018091EB03811105C081E08093A9
:100E2000EB030E941604D7FF05C0D195C195D109E7
:100E300081E001C080E0C13991E0D90714F0C0E938
:100E4000D1E0D0938900C0938800882311F061E03D
:100E500001C060E082E0DF91CF910C94B1184F9215
:100E60005F926F927F928F929F92AF92BF92CF923A
:100E7000DF92EF92FF920F931F93CF93DF93EC01DA
:100E8000423051056105710510F480E078C0898514
:100E90009A85AB85BC850196A11DB11D8417950768
:100EA000A607B70790F3CB88DC88ED88FE888F898A
:100EB000803129F4BB27A72F962F852F09C0DB018E
:100EC000CA01E7E0B695A79597958795EA95D1F77A
:100ED000480159012A013B01C80ED91EEA1EFB1E1A
:100EE0008091040190910501A0910601B091070144
:100EF000C816D906EA06FB0681F48F898031A9F469
:100F0000B301A201552766277727440F551FFA0121
:100F1000E551FE4F9182808219C040E0C701B601C1
:100F20000E94A7058111E9CFB0CFB301A2014F778D
:100F3000552766277727440F551F440F551FFA0181
:100F4000E551FE4F80829182A282B3828091E601B8
:100F500081608093E6018A89823080F08D819E8154
:100F6000AF81B885C80ED91EEA1EFB1EC092E701EC
:100F7000D092E801E092E901F092EA0181E0DF918C
:100F8000CF911F910F91FF90EF90DF90CF90BF9086
:100F9000AF909F908F907F906F905F904F9008954B
:100FA0008F929F92AF92BF92CF92DF92EF92FF9279
:100FB0000F931F93CF93DF93FC0181859285A385C7
:100FC000B4850196A11DB11D84179507A607B70723
:100FD00010F480E05BC083889488A588B6888789F0
:100FE000803129F4BB27A72F962F852F09C0DB015D
:100FF000CA01C7E0B695A79597958795CA95D1F789
:10100000E9016A017B018F01BC01CD01680D791DE9
:101010008A1D9B1D8090040190900501A0900601FF
:10102000B0900701681579058A059B0591F4F801D0
:1010300087898031A1F4DD24EE24FF24C601880FC6
:10104000991FFC01E551FE4F80819181A0E0B0E045
:1010500018C040E00E94A7058111E9CFBACFE894FB
:10106000C7F8DD24EE24FF24C601880F991F880FDE
:10107000991FFC01E551FE4F80819181A281B381CE
:10108000BF7088839983AA83BB8381E0DF91CF916E
:101090001F910F91FF90EF90DF90CF90BF90AF9096
:1010A0009F908F9008954F925F926F927F92AF9230
:1010B000BF92CF92DF92EF92FF920F931F93CF9345
:1010C000DF9300D000D01F92CDB7DEB78C016D83C7
:1010D000DC0115968C911597813009F054C0149657
:1010E0008C9181FF50C057C0258530E0275F3F4F6E
:1010F0002A013B01B1E04B1A510861087108022E28
:1011000004C076946794579447940A94D2F7D70111
:10111000C6010197A109B10904C0B695A795979595
:1011200087952A95D2F784159505A605B70508F089
:1011300076C0F8014789508D618D728D4683578343
:10114000608771872C013D015801F6E0AF0EB11C9C
:10115000411451046104710409F46BC0D80116965E
:101160004D915D916D917C91199795015B968D9153
:101170009C915C970E94D007B1E04B1A510861081E
:1011800071088111E5CF81E090E0F80193838283BB
:1011900080E090E05BC182FF0EC0F801428553857C
:1011A00064857585C388D488E588F6884C155D0507
:1011B0006E057F05E9F4D8011A964D915D916D9108
:1011C0007C911D975B96ED91FC915C979481915079
:1011D0006A017B0189E0F694E794D794C7948A95D5
:1011E000D1F79C217A01B1E0FB22911173C027C095
:1011F000D801038CF48DE02DC114D104E104F10475
:1012000009F072CF16961D921D921D921C9219978D
:101210001A961D921D921D921C921D9714C0452B6B
:10122000462B472B09F485CF84199509A609B709E0
:1012300089CFF801C286D386E486F586BCCFE11457
:10124000F10409F047C0D80116964D915D916D915A
:101250007C911997411551056105710559F457960F
:101260008D919D910D90BC91A02D0097A105B10588
:1012700049F522C09E012F5F3F4FCF010E94D0074A
:10128000882309F485CF89819A81AB81BC81F801DB
:10129000238D348DF9012789203129F448EF5FEF40
:1012A00060E070E004C048EF5FEF6FEF7FE084170D
:1012B0009507A607B70730F0C8010E94AE17811145
:1012C00006C061CFF80186839783A087B187E12CA0
:1012D000F12C90E0D8015B96ED91FC915C9716960D
:1012E0004D905D906D907C901997B2E04B1A51082B
:1012F00061087108058404C0440C551C661C771CE9
:101300000A94D2F74685578560897189440E551E27
:10131000661E771E490E511C611C711CE114F104FC
:1013200009F5F8014285538564857585838994891B
:10133000A589B689481759076A077B0798F00E9464
:101340007005882309F41FCF4092040150920501D3
:1013500060920601709207018091E601816080939E
:10136000E60108C041E0C301B2010E94A70588233D
:1013700009F409CFF701E551FE4F8D818083F80113
:1013800082859385A485B5850196A11DB11D8287AF
:101390009387A487B58743895489658976894817D7
:1013A00059076A077B0738F4838B948BA58BB68B20
:1013B000848180688483D80114968C9183FD03C056
:1013C00081E090E043C0F8019581992309F4DBCED8
:1013D00087FF37C0668577858089918941E00E94C3
:1013E000A705882309F4CFCED8015296EC91B0E23C
:1013F000EB9FF0011124E551FE4F309709F4C3CE65
:10140000D80115968C911597823050F453964D91D2
:101410005D916D917C915697448F558F668F778F34
:10142000D80157964D915D916D917C915A97538F4C
:10143000428F758B648B14968C9114978F771496CA
:101440008C930E9470058111BBCF9DCE0F900F90A1
:101450000F900F900F90DF91CF911F910F91FF9000
:10146000EF90DF90CF90BF90AF907F906F905F90A4
:101470004F900895FF920F931F93CF93DF9300D067
:10148000CDB7DEB78C01F62E60E0FC01838D0E94A3
:10149000B1184091000150910101609102017091D9
:1014A0000301CE0101960E945F1689819A810E94F4
:1014B000280E80E80E94DC0D8F2D0E94DC0D0E941A
:1014C000DB0D61E0F801838D0E94B1180F900F9041
:1014D000DF91CF911F910F91FF900895FF920F938D
:1014E0001F93CF93DF9300D0CDB7DEB78C01F62EDC
:1014F00060E0FC01838D0E94B11840910001509181
:1015000001016091020170910301CE0101960E94D8
:101510005F1689819A810E94280E80E00E94DC0D6E
:101520008F2D0E94DC0D0E94DB0D61E0F801838DA0
:101530000E94B1180F900F90DF91CF911F910F91E2
:10154000FF900895EF92FF920F931F93260F371F7E
:10155000DC01ED91FC9104A0F5A1E02D78018A0158
:1015600009951F910F91FF90EF900895EF92FF92D0
:101570000F931F93240F351FDC01ED91FC9104A004
:10158000F5A1E02D780189019B0109951F910F912B
:10159000FF90EF9008950895FC016370668B84813D
:1015A000958126813781613039F0633029F0918748
:1015B00080873387228708953187208793878287A2
:1015C00008956F927F928F929F92AF92BF92CF9227
:1015D000DF92EF92FF920F931F93CF93DF93EC0173
:1015E0004B015A0169013801E881F9810284F385D0
:1015F000E02D0995E881F9810288F389E02D8701C2
:101600009601A501B401CE010995A501460D571D0E
:1016100041505109E881F9810288F389E02D960152
:10162000B401CE010995E881F9810088F189E02DA6
:101630009301A501B401CE010995C80CD91CB601CE
:1016400061507109E881F9810088F189E02D9301E9
:10165000A501CE010995E881F9810688F789E02D79
:10166000CE01DF91CF911F910F91FF90EF90DF900E
:10167000CF90BF90AF909F908F907F906F90099484
:101680008F929F92AF92BF92CF92DF92EF92FF9292
:101690000F931F93CF93DF934C016B015A01E90124
:1016A000DC01ED91FC916217730781F404171507B3
:1016B00024F48B2D5801042F182F0A191B099801A7
:1016C0002F5F3F4F048CF58DE02D12C0401751075E
:1016D00009F52617370724F48D2D6901C62FD82F59
:1016E0009E012C193D092F5F3F4F068CF78DE02D91
:1016F0008701A501B601C4010995DF91CF911F9122
:101700000F91FF90EF90DF90CF90BF90AF909F90A0
:101710008F9008950284F385E02D0995D401ED9111
:10172000FC910488F589E02D9E01A501B601C40154
:101730000995D401ED91FC910688F789E02DC4014B
:10174000DF91CF911F910F91FF90EF90DF90CF909D
:10175000BF90AF909F908F900994EF92FF920F935C
:101760001F93DC011A960D911C911B9718962D91D1
:101770003C911997ED91FC9100A0F1A1E02D7B0126
:1017800040E050E060E070E009951F910F91FF90FC
:10179000EF9008954F925F926F927F928F929F92F7
:1017A000AF92BF92CF92DF92EF92FF920F931F936F
:1017B000CF93DF936C012B015A0139014801DC0101
:1017C000ED91FC910284F385E02D0995E201640C12
:1017D000751CD601ED91FC91C615D7055CF4008807
:1017E000F189E02D87019401A501BE01C60109958B
:1017F0002196EFCF0688F789E02DC601DF91CF91C2
:101800001F910F91FF90EF90DF90CF90BF90AF901E
:101810009F908F907F906F905F904F9009948F92E0
:101820009F92AF92BF92CF92DF92EF92FF920F936F
:101830001F93CF93DF93EC015B014A016901E881BB
:10184000F9810284F385E02D099595012C0D3D1D4C
:1018500021503109E881F9810488F589E02D78016A
:101860008401A401B501CE010995E881F9810688BA
:10187000F789E02DCE01DF91CF911F910F91FF905D
:10188000EF90DF90CF90BF90AF909F908F90099492
:101890008F929F92AF92BF92CF92DF92EF92FF9280
:1018A0000F931F93CF93DF93EC015B014A01690112
:1018B0007801E881F9810284F385E02D0995C80C4F
:1018C000D91C860101501109E881F9810488F58944
:1018D000E02D9501A401B501CE010995E881F981BA
:1018E0000688F789E02DCE01DF91CF911F910F91EE
:1018F000FF90EF90DF90CF90BF90AF909F908F9030
:1019000009940895EF92FF920F931F93DC01ED91DC
:10191000FC9100A0F1A1E02D09951F910F91FF907E
:10192000EF9008950F931F93DC01ED91FC91068CCD
:10193000F78DE02D09951F910F9108950F931F9337
:10194000DC01ED91FC91048CF58DE02D09951F9142
:101950000F910895DC01ED91FC910084F185E02D5B
:1019600009942F923F924F925F926F927F928F9243
:101970009F92AF92BF92CF92DF92EF92FF920F931E
:101980001F93CF93DF9300D000D000D0CDB7DEB748
:101990002C017E836D836A015901C801FC82EB82B0
:1019A0004801841A950A97FE03C091948194910886
:1019B00035012D813E81621A730A77FE03C071944E
:1019C00061947108681479045CF43A2D2B2D5C0144
:1019D000832F922F3D812E81DE82CD82C32ED22E87
:1019E000AD81BE81AA16BB065CF43C2D2D2D6C0189
:1019F000832F922F3D812E81BE82AD82A32EB22EE7
:101A000085012D813E81021B130B1C012C183D0802
:101A100037FE03C0319421943108780117FF03C0C9
:101A20003FEFE31AF30AF594E794C816D9062CF0B1
:101A30008FEF9FEF9A83898304C0A1E0B0E0BA835F
:101A4000A9832D813E81A216B30624F1D201ED9126
:101A5000FC910484F585E02D2B813C816814790488
:101A600024F44D815E81B60103C0A6016D817E81A3
:101A7000C2010995E218F308F7FE06C029813A81F0
:101A8000C20ED31EE00EF11E8D819E8101969E83B3
:101A90008D83D7CF26960FB6F894DEBF0FBECDBF8D
:101AA000DF91CF911F910F91FF90EF90DF90CF903A
:101AB000BF90AF909F908F907F906F905F904F906E
:101AC0003F902F900895089580E090E00895CF9280
:101AD000EF92FF920F931F93FC01078D10A101500D
:101AE0001109258D368D21503109CC24C3947B01F9
:101AF00040E050E060E070E00E9408171F910F91F5
:101B0000FF90EF90CF900895CF92EF92FF920F93B6
:101B10001F93040F151F01501109260F371F215065
:101B20003109CC24C3940E9408171F910F91FF9094
:101B3000EF90CF900895CF92EF92FF920F931F9363
:101B4000040F151F01501109260F371F21503109AD
:101B5000C12C0E9408171F910F91FF90EF90CF901A
:101B60000895CF93DF93EA010E943819CE01DF91E7
:101B7000CF910895CF93DF931F92CDB7DEB76983DE
:101B800041E050E0BE016F5F7F4F0E94381981E055
:101B900090E00F90DF91CF9108951F93CF93DF9343
:101BA000EC01142F0E943A0A612FCE01DF91CF91F0
:101BB0001F910C946E0A08958EBD00000DB407FEAF
:101BC000FDCF8EB50895CF92DF92EF92FF920F93E3
:101BD0001F93CF93DF93EC017A01122F032F0E9402
:101BE000D6166C01B701CE010E94C5167C014C2DA2
:101BF00066E4CE010E94CD0D4D2D67E4CE010E941A
:101C0000CD0D4E2D68E4CE010E94CD0D4F2D69E41F
:101C1000CE010E94CD0D62E0CE010E943A0A60E042
:101C20008B8D0E94B11880E00E94DC0D802F0E94F5
:101C3000DC0D812F0E94DC0D61E08B8DDF91CF9157
:101C40001F910F91FF90EF90DF90CF900C94B118FF
:101C50008CBD9DBD0895FF920F931F93CF93DF938B
:101C600000D0CDB7DEB78C010E943A0A60E0F801DF
:101C7000838D0E94B1184091000150910101609143
:101C8000020170910301CE0101960E945F168981C5
:101C90009A810E94280E80E40E94DC0D80E00E9460
:101CA000DC0DF82E61E0F801838D0E94B1188F2DB4
:101CB0000F900F90DF91CF911F910F91FF9008959A
:101CC0008F929F92AF92BF92CF92DF92EF92FF924C
:101CD0000F931F93CF93DF93EC015A0169010E9488
:101CE000D6164C01B501CE010E94C5165C01B601A5
:101CF000CE010E94D6166C01B801CE010E94C51615
:101D00008C0161E9CE010E943A0A682DCE010E9441
:101D10006E0A62E9CE010E943A0A692DCE010E9444
:101D20006E0A63E9CE010E943A0A6A2DCE010E9432
:101D30006E0A64E9CE010E943A0A6B2DCE010E9420
:101D40006E0A65E9CE010E943A0A6C2DCE010E940E
:101D50006E0A66E9CE010E943A0A6D2DCE010E94FC
:101D60006E0A67E9CE010E943A0A602FCE010E94F6
:101D70006E0A68E9CE010E943A0A612FCE010E94E4
:101D80006E0A63E6CE010E943A0A6F2D669566954B
:101D90006695CE010E946E0A64E6CE010E943A0A60
:101DA000B701607E777085E0769567958A95E1F753
:101DB000CE010E946E0A65E6CE010E943A0A6E2D9F
:101DC0006F71CE010E946E0A60E9CE010E943A0A4C
:101DD00060E8CE010E946E0A60E9CE010E942B0EDF
:101DE00087FDFACFDF91CF911F910F91FF90EF9078
:101DF000DF90CF90BF90AF909F908F9008952F92DB
:101E00003F924F925F926F927F928F929F92AF928A
:101E1000BF92CF92DF92EF92FF920F931F93CF93D7
:101E2000DF93CDB7DEB76B970FB6F894DEBF0FBE6A
:101E3000CDBF9B8F8A8F1B014A01D22E198708873D
:101E40003701A982DC0159962D913C915A972115B1
:101E5000310509F0FFC018968D919C91199768176C
:101E600079070CF0E7C11A968D919C911B97481742
:101E700059070CF0DFC1EC2DF0E0FB83EA839B01F6
:101E800046E0C49E200D311D11243D872C8712167B
:101E900013060CF0CFC16A2D70E07B876A8783E060
:101EA000660F771F8A95E1F77F876E87CB01880DD4
:101EB000991D181619060CF0BDC158968C91811108
:101EC00004C08FEA8D1508F4D394AA8DBB8DED91D3
:101ED000FC9111970284F385E02DCD010995B5E0C1
:101EE000DB9EC0011124EC2DF0E0F98BE88B910111
:101EF0002B5F3F4F3B8B2A8B3D822C822101AC0113
:101F0000421953095D8B4C8B7981672F70E07F8B71
:101F10006E8BC4010896998F888FEC89FD89E40D3A
:101F2000F51DE859FF4FD49054019F828E82D0FE58
:101F300016C0AA8DBB8DED91FC91B1E0CB1209C00A
:101F40002981213031F40484F585E02D28853985F7
:101F500019C00684F785E02DE884F9841DC0488502
:101F600059854615570519F1AA8DBB8DED91FC9148
:101F7000B1E0CB120DC02981213051F40484F585E4
:101F8000E02D9301A501B2018A8D9B8D09950FC0AB
:101F90000684F785E02D73010A851B852A813B8124
:101FA0004E815F816C817D818A8D9B8D0995D69450
:101FB0003FEFA31AB30A4E815F816E897F89460F76
:101FC000571F5F834E83888D998DA816B90609F037
:101FD000AECF9FEF491A590AAC81BD81E889F989D2
:101FE000AE0FBF1FBD83AC832A893B8942165306BF
:101FF00009F093CF488559854615570509F4F8C06F
:10200000AA8DBB8DED91FC91B1E0CB1211C029815D
:10201000213071F4B1016B5F7F4F0088F189E02DB1
:10202000830128E030E0A4018A8D9B8D0995E0C0F2
:102030006C857D854A815B81641B750B0684F78501
:10204000E02D73010E851F859A01A4018A8D9B8D59
:102050000995CEC0F9013496E491DE1AF901329661
:1020600085919491B7E0DB9E800D911D1124F901BB
:10207000259134913B8B2A8BFC0125913491590198
:10208000FC0132965490319634913C87329674908C
:102090003196149141E04C1518F05981523068F096
:1020A000672D072C000C770B7B836A83812F012E11
:1020B000000C990B9D838C8304C01D821C821B82A3
:1020C0001A82AA8DBB8DED91FC9111970284F38544
:1020D000E02DCD010995412CD12C612CF981EF2FF8
:1020E000F0E0FF83EE832C2D30E03B872A87A401AC
:1020F000410F511D17FD5A955F8B4E8BB101670D36
:10210000711D77FC7A95798F688F7C85671608F04A
:102110006FC0262D30E04C815D81420F531FAE8190
:10212000BF81A49FC001A59F900DB49F900D112465
:10213000F401E80FF91FF98BE88B842D712C4E897F
:102140005F89420F531F5D8B4C8B751408F04DC097
:1021500051E0580F5E87877041F4C5010196EA8906
:10216000FB89EA0DFB1DD4905C01D7FE3AC061E00B
:10217000C61216C07981713099F4AA8DBB8DED918C
:10218000FC9111970484F585E02D288539854C89CB
:102190005D89688D798D670D711DCD01099521C00F
:1021A0008A819B81870D911DEA85FB858E9FB001F9
:1021B0008F9F700D9E9F700D1124620D731DAA8D4F
:1021C000BB8DED91FC9111970684F785E02DE88495
:1021D000F9840E811F812A853B8548895989CD0163
:1021E0000995DD0C73948E85B0CF450C63948DCF2B
:1021F000AA8DBB8DED91FC9111970688F789E02D92
:10220000CD016B960FB6F894DEBF0FBECDBFDF9148
:10221000CF911F910F91FF90EF90DF90CF90BF90E3
:10222000AF909F908F907F906F905F904F903F9076
:102230002F9009946B960FB6F894DEBF0FBECDBFFA
:10224000DF91CF911F910F91FF90EF90DF90CF9092
:10225000BF90AF909F908F907F906F905F904F90C6
:102260003F902F9008958F929F92AF92CF92EF92CE
:10227000FF920F931F93CF93DF93EC01262F898D4D
:102280009A8D009709F042C06A3059F41D861C8669
:102290002D898E859F8538E0239F800D911D112407
:1022A00043C06D3009F4AAC08F898823C9F03C89E6
:1022B0008C859D8546E0349F800D911D11244885B5
:1022C00059854817590764F41D861C863D898E85FB
:1022D0009F8548E0349F800D911D11249F878E8734
:1022E000EA88FB88088919894E855F856C857D851C
:1022F000AD88CC88CE010E94FF0E2C898C859D85EF
:1023000036E0239F800D911D11243EC06A3079F480
:102310001D861C862D89FC013696E4918E859F854D
:102320002E9F800D911D11249F878E8767C06D3071
:1023300009F464C0FC0134963491631708F45EC05C
:102340003196E491E61708F459C0462F431B342F09
:10235000FC0132968590949047E0349F800C911C4C
:102360001124F401329634913196E491332311F023
:10237000E1110DC0F4013496E4912C898C859D8582
:10238000E29F800D911D11249D878C8737C0F40139
:10239000359644915F89552319F15C89E32FF0E06C
:1023A000E40FF11D47FDFA955E9FB0015F9F700D30
:1023B00011244C855D85460F571F68857985641704
:1023C000750774F41D861C863D89FC013696E491E0
:1023D0008E859F853E9F800D911D11249F878E873E
:1023E000EA88FB88088919894E855F856C857D851B
:1023F000AD88CC88CE010E94FF0EBCCF81E090E07A
:10240000DF91CF911F910F91FF90EF90CF90AF9000
:102410009F908F9008952F923F924F925F926F926C
:102420007F928F929F92AF92BF92CF92DF92EF9264
:10243000FF920F931F93CF93DF9300D000D000D073
:10244000CDB7DEB79E838D834B013A016901802FA2
:1024500021E030E029014C185D08002711270C19F4
:102460001D09000F111FAA24A394B12C2224239428
:10247000312C982F94709983A82FA270AA83B82F1B
:10248000B870BB8381708C83C50101978C159D0545
:102490000CF0A7C057FC07C091E0C91AD1080E5F25
:1024A0001F4F400E511EA2E02A0E311C420C531C3D
:1024B000B981BB2311F1AD81BE81ED91FC911197E2
:1024C0000484F585E02D9701A601460D571DB40142
:1024D0006A0D7B1DCD010995AD81BE81ED91FC9109
:1024E00011970484F585E02D9701A3014A0D5B1D2A
:1024F000B601680D791DCD010995BA81BB2311F193
:10250000AD81BE81ED91FC9111970484F585E02D9C
:102510009701A3014C195D09B4016A0D7B1DCD0122
:102520000995AD81BE81ED91FC9111970484F585EB
:10253000E02D9701A3014A195B09B601680D791DC9
:10254000CD010995BB81BB2311F1AD81BE81ED9118
:10255000FC9111970484F585E02D9701A3014A0DA4
:102560005B1DB4016C197D09CD010995AD81BE815A
:10257000ED91FC9111970484F585E02D9701A6015A
:10258000460D571DB4016A197B09CD010995BC811F
:10259000B11104C08FEFA81AB80A76CFAD81BE8101
:1025A000ED91FC9111970484F585E02D9701A3012D
:1025B0004A195B09B4016C197D09CD010995AD81FA
:1025C000BE81ED91FC9111970484F585E02D970172
:1025D000A3014C195D09B4016A197B09CD01099564
:1025E000D9CF26960FB6F894DEBF0FBECDBFDF91D0
:1025F000CF911F910F91FF90EF90DF90CF90BF9000
:10260000AF909F908F907F906F905F904F903F9092
:102610002F9008952F923F924F925F926F927F92E8
:102620008F929F92AF92BF92CF92DF92EF92FF92E2
:102630000F931F93CF93DF93CDB7DEB72C970FB6D1
:10264000F894DEBF0FBECDBF5C013B0158874F83BE
:102650003C872B87260181E090E06C01C21AD30AE7
:10266000C9019195819591099C01220F331F3E83E9
:102670002D83C70101969C838B831A019A838983DA
:102680008B849C84EE24E394F12C902F9170998795
:1026900002700A87C7010197AB85BC858A179B0723
:1026A0000CF08CC0D7FC0BC01197BC87AB872D8179
:1026B0003E812E5F3F4F3E832D83C20ED31EC70146
:1026C000880F991F0196C80ED91E8B859C858E1583
:1026D0009F05D4F199859923D1F02B853C85220F54
:1026E000331FAB81BC812A0F3B1FD501ED91FC91BB
:1026F0000088F189E02D82014F8158858B859C856A
:10270000481B590BB3016E0D7F1DC50109959A85B4
:102710009923D1F02B853C85220F331FAB81BC81DF
:102720002A0F3B1FD501ED91FC910088F189E02D26
:1027300082014F8158858B859C85481B590BB301BD
:102740006E197F09C5010995AB85BC85A815B9052A
:1027500069F4AFEFEA1AFA0AB1E02B1A31082981BD
:102760003A812E5F3F4F3A83298394CFB985BB23AB
:1027700079F0D501ED91FC910088F189E02D82017D
:1027800029813A81A101B301680D791DC50109951F
:10279000BA85B11103C08B849C84DBCFB301681967
:1027A0007909D501ED91FC910088F189E02D820134
:1027B00029813A81A101C5010995EDCF2C960FB66B
:1027C000F894DEBF0FBECDBFDF91CF911F910F9167
:1027D000FF90EF90DF90CF90BF90AF909F908F9041
:1027E0007F906F905F904F903F902F90089590E072
:1027F000FC01E057FA4F2491FC01E458FA4F849110
:10280000882399F090E0880F991FFC01EE58FA4F49
:10281000A591B491FC01E859FA4F859194918FB735
:10282000F894EC91E22BEC938FBF0895AF92CF9286
:10283000EF92FF920F931F93242F32E0A32E42E0DA
:10284000C42EE12CF12C0FEF1FEFAB01BC0181ED89
:1028500094E00E94FF0E1F910F91FF90EF90CF9098
:10286000AF9008952F923F924F925F926F927F9216
:102870008F929F92AF92BF92CF92DF92EF92FF9290
:102880000F931F93CF93DF93CDB7DEB72E970FB67D
:10289000F894DEBF0FBECDBF9E878D87DC011E96EC
:1028A0002D903C901F971C96ED91FC911D97FA83FB
:1028B000E98350962D913C9151973A872987169636
:1028C000CD90DC9017971896AD90BC901997CA14CC
:1028D000DB0410F4C60101C0C50196958795969555
:1028E0008795A82FB0E0BC83AB83ED85FE8504807F
:1028F000F581E02DFE83ED83AD85BE8512960D90AA
:10290000BC91A02DB887AF83ED85FE858080918036
:10291000CA14DB0424F4C601D7FE04C002C0C501FA
:10292000B7FC0196959587954B805C80841595053D
:102930000CF42C01D401ED91FC910284F385E02D7F
:10294000C40109953201660C771CEF81F885E40D0E
:10295000F51DFC87EB87960126193709D401ED9107
:10296000FC910684F785E02D710185014D815E8122
:102970006B857C85C4010995A618B708B1E0AB1A30
:10298000B1086D807E80640C751C6F8178856C0D3C
:102990007D1D64197509615071096101750101E0BE
:1029A0009201A301C4010E940A1302E09201A30153
:1029B0006B857C85C4010E940A13D401ED91FC91C2
:1029C0000688F789E02DC4010995ED85FE85808490
:1029D0009184E680F7804480558062807380C08057
:1029E000D180E814F90424F4C701F7FE04C002C042
:1029F000C40197FC019695958795AB80BC808A159C
:102A00009B050CF45C01D601ED91FC910284F385E9
:102A1000E02DC6010995F501EE0FFF1FFC83EB8346
:102A200097012E1B3F0B3E832D8313012A0C3B1C69
:102A3000D601ED91FC910288F389E02D09811A817C
:102A4000A201B101C6010995F401E40DF51DF88755
:102A5000EF83AF0141505109D601ED91FC910288FD
:102A6000F389E02D09811A812D813E81B101C601D2
:102A70000995EB81FC818E1A9F0A4A0C5B1CD601DA
:102A8000ED91FC910088F189E02D09811A81940172
:102A9000A201B301C60109956E0C7F1CB301615000
:102AA0007109D601ED91FC910088F189E02D098131
:102AB0001A819401A201C6010995E980FA8001E01A
:102AC0009501A201B101C6010E940B126A187B0890
:102AD000B1E06B1A7108E980FA8002E09501A20169
:102AE000B301C6010E940B128F8098848A189B083C
:102AF000E1E08E1A9108E980FA8004E09501A401D2
:102B0000B301C6010E940B12E980FA8008E095012A
:102B1000A401B101C6010E940B12D601ED91FC91F6
:102B20000688F789E02DC6010995ED85FE85438568
:102B3000808591859695879524813581820F931F95
:102B4000F4E04F9F8019910911246D857E856E5E9A
:102B50007F4FDB010D900020E9F711976D01C61A38
:102B6000D70AAD85BE851A96FC901A97ED91FC9117
:102B7000119716962D913C91179736952795129699
:102B80004D915C911397240F351FB3E0FB9EA0017C
:102B900011244C9D70014D9DF00C5C9DF00C112496
:102BA0002E193F09358724879787868729853A8597
:102BB000338B228B318B208BAD85BE851B968C9100
:102BC0001B971A969C91911101C091E0948B8111F1
:102BD00001C081E0858BED85FE85808191812E96F7
:102BE0000FB6F894DEBF0FBECDBFDF91CF911F911E
:102BF0000F91FF90EF90DF90CF90BF90AF909F909C
:102C00008F907F906F905F904F903F902F900C949B
:102C10007206CF93DF93BC0180EF93E00E947206AF
:102C2000EC0165E671E080EF93E00E9472068C0F84
:102C30009D1FDF91CF9108958F929F92AF92BF9287
:102C40000F931F93CF93DF93CDB7DEB7A1970FB646
:102C5000F894DEBF0FBECDBF19A2423008F44AE09F
:102C60008E010F5D1F4F842E912CA12CB12CA5013C
:102C700094010E944320E62FB901CA0101501109B5
:102C8000EA3014F4E05D01C0E95CD801EC93232B39
:102C9000242B252B61F7B80180EF93E00E94720688
:102CA000A1960FB6F894DEBF0FBECDBFDF91CF91D6
:102CB0001F910F91BF90AF909F908F900895CF92EA
:102CC000DF92EF92FF92FC01C12C92E1D92E9AE79C
:102CD000E92EF12C20E04C155D056E057F0540F4D2
:102CE000F694E794D794C7942F5F2630A1F727E096
:102CF00091E09227292F206A269520839170918355
:102D0000FF90EF90DF90CF9008950F931F93CF9394
:102D1000DF9362E781ED94E00E942B0E082F10E014
:102D200063E781ED94E00E942B0EC82FD0E064E7AA
:102D300081ED94E00E942B0E000F111F000F111F58
:102D4000CC0FDD1FCC0FDD1F982F9370092B109334
:102D5000EF030093EE03282F30E035952795359546
:102D60002795237033272C2B3D2B3093ED03209395
:102D7000EC0344E061EF81ED94E00E94CD0D81E031
:102D8000DF91CF911F910F910895FC0182A18230B4
:102D900039F4878D90A101979C01261B370BB9014F
:102DA00083A19B01280F311DC9010895FC0122A1B7
:102DB000223039F4858D968D01979C01261B370BA7
:102DC000B901CB0108953FB7F894809181059091A6
:102DD0008205A0918305B091840526B5A89B05C006
:102DE0002F3F19F00196A11DB11D3FBFBA2FA92F8A
:102DF000982F8827820F911DA11DB11DBC01CD0107
:102E000042E0660F771F881F991F4A95D1F70895F2
:102E10007F928F929F92AF92BF92CF92DF92EF926A
:102E2000FF920F931F93CF93DF93EC014A01590157
:102E30000E94D616782ED92EB401CE010E94C51656
:102E40004C01B501CE010E94D6165C01B801CE013D
:102E50000E94C5168C0161E9CE010E943A0A672DD5
:102E6000CE010E946E0A62E9CE010E943A0A6D2DDF
:102E7000CE010E946E0A63E9CE010E943A0A682DD3
:102E8000CE010E946E0A64E9CE010E943A0A692DC1
:102E9000CE010E946E0A65E9CE010E943A0A6A2DAF
:102EA000CE010E946E0A66E9CE010E943A0A6B2D9D
:102EB000CE010E946E0A67E9CE010E943A0A602F95
:102EC000CE010E946E0A68E9CE010E943A0A612F83
:102ED000CE010E946E0A63E6CE010E943A0A6F2D6F
:102EE000669566956695CE010E946E0A64E6CE01EF
:102EF0000E943A0AB701607E777085E07695679503
:102F00008A95E1F7CE010E946E0A65E6CE010E9425
:102F10003A0A6E2D6F71CE010E946E0A60E9CE01F1
:102F20000E943A0ACC2011F060EB01C060E9CE01AA
:102F30000E946E0A60E9CE010E942B0E87FDFACF37
:102F4000DF91CF911F910F91FF90EF90DF90CF9085
:102F5000BF90AF909F908F907F9008953F924F9237
:102F60005F926F927F928F929F92AF92BF92CF9219
:102F7000DF92EF92FF920F931F93CF93DF93CDB722
:102F8000DEB72C970FB6F894DEBF0FBECDBF5C0145
:102F9000DC015B968D909C905C971696CD90DD90B1
:102FA000ED90FC901997C114D104E104F10439F0BB
:102FB000BFEFCB1ADB0AEB0AFB0A312C07C0F40186
:102FC000C080D180E280F38033243394F401818582
:102FD0009285A385B4859C01AD012F5F3F4F4F4F74
:102FE0005F4F29873A874B875C87260137011D820F
:102FF0001E821F821886F40181859285A385B4857F
:103000002D813E814F815885281739074A075B0774
:1030100008F063C089859A85AB85BC858C159D05B4
:10302000AE05BF0550F482E0C82ED12CE12CF12C66
:1030300092E0492E512C612C712C9E012F5F3F4F45
:10304000B701A601C4010E94D007882309F445C036
:1030500089819A81AB81BC81892B8A2B8B2B41F092
:10306000260137019FEF491A590A690A790A05C0F2
:10307000C414D504E604F70491F02D813E814F81FC
:1030800058852F5F3F4F4F4F5F4F2D833E834F83B8
:1030900058873FEFC31AD30AE30AF30AACCF0FEF06
:1030A0001FEF2FEF3FE0B301A201C4010E942F07E1
:1030B000882399F0D50116964D915D916D917C9183
:1030C0001997411551056105710549F09301820178
:1030D000C4010E942F07811102C080E02AC0D501DF
:1030E00016964D925D926D927C921997332051F015
:1030F000D301C2010196A11DB11DF401808391830A
:10310000A283B383F5018789908DA18DB28D892B20
:103110008A2B8B2B69F4D50157964D925D926D9257
:103120007C925A9714968C911497806814968C937D
:1031300081E02C960FB6F894DEBF0FBECDBFDF91B5
:10314000CF911F910F91FF90EF90DF90CF90BF90A4
:10315000AF909F908F907F906F905F904F903F9037
:10316000089590E0FC01EC55FA4F2491FC01E057E2
:10317000FA4F3491FC01E458FA4FE491EE2309F43C
:103180003CC0222339F1233091F038F42130A9F0EA
:10319000223001F584B58F7D12C0273091F02830A0
:1031A000A1F02430B9F4809180008F7D03C080911C
:1031B00080008F77809380000DC084B58F7784BDA9
:1031C00009C08091B0008F7703C08091B0008F7DDF
:1031D0008093B000F0E0EE0FFF1FE859FA4FA59181
:1031E000B4919FB7F894611104C08C913095382345
:1031F00002C0EC913E2B3C939FBF08958F929F920B
:10320000AF92BF92CF92DF92EF92FF926B017C015F
:103210000E94E3164B015C01C114D104E104F104E6
:10322000F1F00E94E316DC01CB0188199909AA0983
:10323000BB09883E9340A105B10570F321E0C21A95
:10324000D108E108F10888EE880E83E0981EA11CE1
:10325000B11CC114D104E104F10419F7DDCFFF90D2
:10326000EF90DF90CF90BF90AF909F908F90089598
:10327000EF92FF920F931F93CF93DF937C018B010B
:10328000EA01209739F4EB0109900020E9F7219732
:10329000C61BD70B62E0C7010E943A0AC00FD11FBC
:1032A0000C171D0789F0F80161918F01C7010E9479
:1032B0006E0AF70181A1823098F361E070E080E04E
:1032C00090E00E94FE18ECCFDF91CF911F910F91FB
:1032D000FF90EF9008951F920F920FB60F92112456
:1032E0002F933F938F939F93AF93BF9380917C05D0
:1032F00090917D05A0917E05B0917F05309180056C
:1033000023E0230F2D3720F40196A11DB11D05C028
:1033100026E8230F0296A11DB11D209380058093FE
:103320007C0590937D05A0937E05B0937F058091E9
:10333000810590918205A0918305B0918405019645
:10334000A11DB11D8093810590938205A0938305F3
:10335000B0938405BF91AF919F918F913F912F9131
:103360000F900FBE0F901F901895CF93DF9300D052
:10337000CDB7DEB7789484B5826084BD84B58160B2
:1033800084BD85B5826085BD85B5816085BD809130
:103390006E00816080936E001092810080918100A8
:1033A00082608093810080918100816080938100A0
:1033B000809180008160809380008091B100846062
:1033C0008093B1008091B00081608093B0008091C3
:1033D0007A00846080937A0080917A008260809382
:1033E0007A0080917A00816080937A0080917A00DF
:1033F000806880937A001092C100E0910004F091FF
:10340000010482E08083E091FC03F091FD031082CF
:10341000E091FE03F091FF038FEC8083109208048B
:10342000E0910404F091050486E08083E0910204B9
:10343000F0910304808180618083E0910204F09127
:103440000304808188608083E0910204F09103048A
:10345000808180688083E0910204F0910304808180
:103460008F7D808388E591E00E94091683E090E0DB
:103470009093F6048093F50480E293E09093EF0438
:103480008093EE0480EE91E09093F1048093F00439
:103490001092F3048091EC040E94F71361E0809194
:1034A000EC040E94B1188091ED040E94F71360E0D3
:1034B0008091ED040E94B11864E670E080E090E035
:1034C0000E94FE1861E08091ED040E94B11864E64C
:1034D00070E080E090E00E94FE181FB7F8948091A1
:1034E000E401811124C0E6E8F5E08491EAE9F5E021
:1034F0009491E82FF0E0EE0FFF1FEE58FA4FA591E0
:10350000B491EC91E92321F461E08AE00E94B118C2
:103510008AE00E94F7138CB580618CBD8CB5806405
:103520008CBD8DE00E94F7138BE00E94F713809111
:10353000E4018F5F8093E4011FBF88E498EEA1E06F
:10354000B0E08093000190930101A0930201B09339
:10355000030160E081ED94E00E942B0E853791F02D
:10356000682F70E080E090E04AE00E941C1665E65B
:1035700071E080EF93E00E94720688E691E00E947D
:1035800009164EC18091F5049091F604039710F44A
:103590004AE001C04BE068E881ED94E00E94CD0D67
:1035A00061E070E080E090E00E94FE1842E069E88F
:1035B00081ED94E00E94CD0D61E070E080E090E04C
:1035C0000E94FE184CE060E181ED94E00E94CD0D78
:1035D0008091F5049091F604009721F480EC80939B
:1035E000F40405C001971092F404029760F418E007
:1035F000D12E03E0C02E8AE0E82E1AE000E398E026
:10360000F92E42E80BC0E7E1DE2EF0E2CF2EA2E079
:10361000EA2E1AE100E6B0E2FB2E41E864E081ED1B
:1036200094E00E94CD0D61E070E080E090E00E94A7
:10363000FE184091EE045091EF0463E056954795D3
:103640006A95E1F7415064E181ED94E00E94CD0D6F
:1036500040E065E181ED94E00E94CD0D412F50E006
:103660004250510973E0559547957A95E1F766E127
:1036700081ED94E00E94CD0DF694F694F6944FEF10
:103680004F0D67E181ED94E00E94CD0D0695069502
:1036900006954FEF400F68E181ED94E00E94CD0D5B
:1036A0004091F40441508091F004480F69E181EDAC
:1036B00094E00E94CD0D8091F0049091F104019767
:1036C0002091F404820F911D492F6AE181ED94E06D
:1036D0000E94CD0D4FEF4C0D6BE181ED94E00E9407
:1036E000CD0D40E06CE181ED94E00E94CD0D4FEFF7
:1036F0004D0D6DE181ED94E00E94CD0D40E06EE155
:1037000081ED94E00E94CD0D4FEF4E0D6FE181ED04
:1037100094E00E94CD0D40E060E381ED94E00E94D2
:10372000CD0D40E061E381ED94E00E94CD0D40912C
:10373000EE04415064E381ED94E00E94CD0D809150
:10374000EE049091EF040197492F65E381ED94E039
:103750000E94CD0D4091F40462E381ED94E00E945B
:10376000CD0D4091F40463E381ED94E00E94CD0D12
:103770004091F40441508091F004480F66E381EDDC
:1037800094E00E94CD0D8091F0049091F104019796
:103790002091F404820F911D492F67E381ED94E09D
:1037A0000E94CD0D40E86EE881ED94E00E94CD0DC1
:1037B00064EF71E080E090E00E94FE1880E099E004
:1037C000ADE3B0E08093000190930101A09302016A
:1037D000B093030140E861E081ED94E00E94CD0DDB
:1037E00041E067EC81ED94E00E94CD0D4AE86AE883
:1037F00081ED94E00E94CD0D4FEF6BE881ED94E0F8
:103800000E94CD0D60E070E081ED94E00E94670DB4
:103810008091F5049091F604039719F042E002C0FC
:10382000FFCF44E0486B60E781ED94E00E94CD0D4E
:1038300044E061E781ED94E00E94CD0D60EF81ED01
:1038400094E00E942B0E482F446060EF81ED94E0DD
:103850000E94CD0D45E56CE271E08EEF91E00E9493
:10386000161443E56CE271E082E192E00E941614C6
:1038700045E46CE271E086E292E00E94161442E5B3
:103880006CE271E08AE392E00E94161442E36CE27B
:1038900071E08EE492E00E94161445E56CE271E05E
:1038A00080EA90E00E94161443E56CE271E084EB3C
:1038B00090E00E94161445E46CE271E088EC90E020
:1038C0000E94161442E56CE271E08CED90E00E94DB
:1038D000161441E36CE271E080EF90E00E94161450
:1038E00042E360E971E086E391E00E94161443E34D
:1038F00060E971E08AE491E00E9416144AE360E90D
:1039000071E08EE591E00E94161445E360E971E0F4
:1039100082E791E00E94161449E360E971E086E8CD
:1039200091E00E9416144AE360E971E08AE991E0AF
:103930000E94161445E360E971E08EEA91E00E946E
:10394000161449E360E971E082EC91E00E941614DC
:1039500084EF91E09093B6048093B50486E9E82E55
:10396000F12CF092B804E092B70404E610E0109352
:10397000BA040093B9041093BC040093BB0490EE06
:10398000892E97E0992E9092C0048092BF042FE177
:10399000A22EB12CB092C204A092C104CC24CA942D
:1039A000DC2CD092C404C092C30481E08093BD0497
:1039B0008093BE0441ED642E44E0742E7092B404F2
:1039C0006092B30449E050E06AE771E085EC94E06E
:1039D0000E946722F0929804E0929704F0929A0471
:1039E000E092990410939C0400939B0410939E040E
:1039F00000939D049092A2048092A104B092A4042A
:103A0000A092A304D092A604C092A50482E0809361
:103A10009F048093A004709296046092950449E0FC
:103A200050E06FE771E087EA94E00E94672283EB41
:103A300094E00E94321485E994E00E94321464E814
:103A400071E080EF93E00E94720660E08091EC04E8
:103A50000E94B11840910001509101016091020152
:103A600070910301CE0101960E945F1689819A81AF
:103A70000E94280E80EC0E94DC0D80E00E94DC0D8C
:103A8000182F0E94DB0D61E08091EC040E94B118B8
:103A9000612F70E080E090E040E10E941C1665E636
:103AA00071E080EF93E00E9472068DE891E00E9441
:103AB000091661EF81ED94E00E942B0E82FDD9C0C2
:103AC00061EF81ED94E00E942B0E82FFCFC00E9437
:103AD00085166091EE037091EF03CB0189559240FA
:103AE0008336910508F0C2C08091EC039091ED03FC
:103AF000875891408D36910508F0B8C080E090E07D
:103B00004AE00E941C166AEA71E080EF93E00E948E
:103B100072066091EC037091ED0380E090E04AE062
:103B20000E941C1665E671E080EF93E00E94720629
:103B300088EC91E00E94091668EC71E080EF93E058
:103B40000E94720683EB94E00E94321464E670E0F7
:103B500080E090E00E94FE1885E994E00E94321413
:103B600044E56CE271E08EEF91E00E94161441E4AE
:103B70006CE271E082E192E00E9416144BE46CE288
:103B800071E086E292E00E94161445E46CE271E076
:103B90008AE392E00E94161440E26CE271E08EE447
:103BA00092E00E94161440E56CE271E080EA90E039
:103BB0000E94161449E46CE271E084EB90E00E94EC
:103BC00016144CE46CE271E088EC90E00E9416144C
:103BD0004CE46CE271E08CED90E00E94161443E539
:103BE0006CE271E080EF90E00E94161400E010E0BB
:103BF000C8010E94DF0662E070E080E090E00E9471
:103C0000FE180F5F1F4F013981E0180789F700E99F
:103C100011E0C8010E94DF0662E070E080E090E001
:103C20000E94FE1801501109A0F700E010E0C80141
:103C30000E94DF0662E070E080E090E00E94FE18E3
:103C4000015011090F368EEF180789F700E71EEFB4
:103C5000C8010E94DF0662E070E080E090E00E9410
:103C6000FE180F5F1F4F0130110591F70E940A04E3
:103C700020CF0E9485166091EE037091EF03CB0177
:103C800089519140439708F01BCF8091EC039091AC
:103C9000ED038F5A91408534910508F011CF80E0F3
:103CA00090E04AE00E941C166AEA71E080EF93E01F
:103CB0000E9472066091EC037091ED0380E090E049
:103CC0004AE00E941C1665E671E080EF93E00E94D6
:103CD00072068DEA91E00E94091685E994E00E943F
:103CE000321464E670E080E090E00E94FE1883EBFE
:103CF00094E00E94321444E56CE271E08EEF91E0B2
:103D00000E94161441E46CE271E082E192E00E94AC
:103D100016144BE46CE271E086E292E00E94161405
:103D200045E46CE271E08AE392E00E94161440E2FE
:103D30006CE271E08EE492E00E94161440E56CE2C1
:103D400071E080EA90E00E94161449E46CE271E0B0
:103D500084EB90E00E9416144CE46CE271E088EC75
:103D600090E00E9416144CE46CE271E08CED90E05F
:103D70000E94161443E56CE271E080EF90E00E942F
:103D8000161400E010E0C8010E94070762E070E02E
:103D900080E090E00E94FE180F5F1F4F013981E024
:103DA000180789F700E911E0C8010E94070762E0DF
:103DB00070E080E090E00E94FE1801501109A0F729
:103DC00000E010E0C8010E94070762E070E080E0B8
:103DD00090E00E94FE18015011090F368EEF18076F
:103DE00089F700E71EEFC8010E94070762E070E054
:103DF00080E090E00E94FE180F5F1F4F0130110518
:103E000091F75ECE80918F04909190040C940321E1
:103E10001092F3031092F20388EE93E0A0E0B0E07A
:103E20008093F4039093F503A093F603B093F70304
:103E300082E191E09093F1038093F00385EC90E0B0
:103E40009093FD038093FC0384EC90E09093FF0338
:103E50008093FE0380EC90E0909301048093000433
:103E600081EC90E0909303048093020482EC90E054
:103E7000909305048093040486EC90E090930704EB
:103E8000809306041092090410920A0410920B0405
:103E900010920C0480E580938D0410928E04109291
:103EA000FC041092FD04109200051092020582E0BD
:103EB00090E0A0E0B0E08093030590930405A09308
:103EC0000505B093060510921A051092240510926C
:103ED000230584E291E090932205809321051092BE
:103EE00026051092D4041092D30420E233E03093DC
:103EF000D6042093D50480EE91E09093D80480936B
:103F0000D7043093DA042093D9049093DC0480938F
:103F1000DB041092E7041092DE041092DD0410928C
:103F2000E0041092DF0481E08093E6048093E504CE
:103F30002FEF3FEF3093E4042093E3043093E20447
:103F40002093E1048093E8041092E9041092EB04BA
:103F50001092EA0480E391E09093D2048093D1041C
:103F60008AE08093EC0489E08093ED041092B4041D
:103F70001092B30410929604109295041092410589
:103F80001092400510925F0510925E051092900409
:103F900010928F0410929204109291041092940443
:103FA0001092930461E070E080E090E00E948C2128
:103FB000009789F09093900480938F04109292045C
:103FC000109291042091930430919404232BC1F416
:103FD000FC01108215C080918F049091900400978D
:103FE00011F00E9403211092900410928F041092FD
:103FF00094041092930410929204109291040895E4
:10400000109294041092930467E671E080918F04FB
:10401000909190040C9460222F923F924F925F9265
:104020006F927F928F929F92AF92BF92CF92DF92C8
:10403000EF92FF920F931F93CF93DF93CDB7DEB72D
:10404000CA1BDB0B0FB6F894DEBF0FBECDBF0994C1
:104050002A88398848885F846E847D848C849B8418
:10406000AA84B984C884DF80EE80FD800C811B8126
:10407000AA81B981CE0FD11D0FB6F894DEBF0FBE55
:10408000CDBFED010895A1E21A2EAA1BBB1BFD01B5
:104090000DC0AA1FBB1FEE1FFF1FA217B307E40727
:1040A000F50720F0A21BB30BE40BF50B661F771F7F
:1040B000881F991F1A9469F760957095809590955F
:1040C0009B01AC01BD01CF010895EE0FFF1F0590CC
:1040D000F491E02D09940F931F93CF93DF938230D7
:1040E000910510F482E090E0E0918705F091880559
:1040F00020E030E0A0E0B0E0309719F1408151813C
:104100000281138148175907C8F08417950769F48D
:10411000109731F012960C93129713961C9327C0A8
:10412000009387051093880522C02115310519F0E9
:104130004217530718F49A01BD01EF01DF01F8019E
:10414000DBCF21153105F9F0281B390B243031055F
:1041500080F48A819B816115710521F0FB019383B5
:10416000828304C09093880580938705FE01329670
:1041700044C0FE01E20FF31F819391932250310955
:10418000398328833AC02091850530918605232BF9
:1041900041F420910A0130910B0130938605209360
:1041A000850520910801309109012115310541F45F
:1041B0002DB73EB740910C0150910D01241B350BDA
:1041C000E0918505F0918605E217F307A0F42E1B18
:1041D0003F0B2817390778F0AC014E5F5F4F24176B
:1041E000350748F04E0F5F1F5093860540938505B5
:1041F0008193919302C0E0E0F0E0CF01DF91CF9195
:104200001F910F910895CF93DF93009709F481C018
:10421000FC01329713821282A0918705B091880524
:10422000109781F420813181820F931F20918505A1
:10423000309186052817390751F5F0938605E093EC
:10424000850567C0ED0120E030E0CE17DF0740F4C0
:104250004A815B819E0141155105F1F0EA01F5CFDC
:10426000D383C28340815181840F951FC817D9071A
:1042700059F488819981840F951F029691838083D8
:104280008A819B81938382832115310529F4F093E0
:104290008805E09387053DC0E901FB83EA834991E6
:1042A0005991C40FD51FEC17FD0761F480819181EE
:1042B000840F951F0296E9019983888382819381F7
:1042C0009B838A83E0E0F0E012968D919C91139796
:1042D000009719F0FD01DC01F7CF8D919C911197AA
:1042E0009D012E5F3F4F820F931F209185053091D6
:1042F00086052817390769F4309729F41092880544
:104300001092870502C013821282B0938605A09393
:104310008505DF91CF910895A0E0B0E0E2E9F1E2F8
:104320000C941020EC01009721F4CB010E946B202B
:10433000B4C0FC01E60FF71F9C0122503109E217BF
:10434000F30708F4A8C0D9010D911C911197061725
:104350001707B0F00530110508F49BC0C801049799
:104360008617970708F495C002501109061B170B12
:10437000019311936D937C93CF010E94032189C017
:104380005B01A01AB10A4C01800E911EA091870515
:10439000B0918805612C712CE12CF12C109709F457
:1043A00046C08D919C911197A815B905B1F56C0186
:1043B00042E0C40ED11CCA14DB0478F14C018A1807
:1043C0009B08640142E0C40ED11C1296BC90129767
:1043D0001396AC91B5E0CB16D10440F0B282A38322
:1043E00091828082D9016D937C9309C00E5F1F4F2B
:1043F000800F911FF90191838083EB2DFA2FE11437
:10440000F10431F0D7011396FC93EE93129741C05B
:10441000F0938805E09387053CC06816790608F498
:104420003C017D0112960D90BC91A02DB7CF8091DB
:1044300085059091860588169906E1F4661677063B
:10444000C8F48091080190910901009741F48DB75B
:104450009EB740910C0150910D01841B950BE817FC
:10446000F907C8F4F0938605E0938505F901718397
:1044700060830FC0CB010E946B207C01009759F034
:10448000A801BE010E945722CE010E940321C7014C
:1044900004C0CE0102C080E090E0CDB7DEB7EEE010
:1044A0000C942C2081E090E0F8940C947622FB018F
:1044B000DC0102C001900D9241505040D8F70895A0
:1044C000FB01DC0101900D920020E1F70895FB0152
:1044D000DC014150504048F001900D920020C9F796
:1044E00001C01D9241505040E0F7089512E0CDED1B
:1044F000D2E004C0FE010E9465202196CE3DD10786
:06450000C9F7F894FFCF9B
:1045060000093D00FFFFFFFF000089058000000055
:1045160000009B0308033203E803630341035503CA
:104526000000000053080803640D630D000000003E
:10453600BA0DB10D640D630DE30D810CAA0C820C4E
:104546009E0C920CB10C810CCC0ACB0AB60AA20ABC
:10455600840D670D600E9B0D524138383735207338
:1045660074617274000D0A00524138383735204E96
:104576006F7420466F756E64210062746E3100623E
:10458600746E32005374617475733A200057616912
:1045960074696E6720666F7220746F756368206534
:1045A60076656E7473202E2E2E002C2000596F75A2
:1045B6002061726520746F756368696E6720626F2B
:1045C60074746F6E20312000596F752061726520FA
:1045D600746F756368696E6720626F74746F6E209E
:0445E600322000007F
:00000001FF
